{
  "_format": "hh-sol-artifact-1",
  "contractName": "SingleSwapToken",
  "sourceName": "contracts/SwapToken.sol",
  "abi": [
    {
      "inputs": [],
      "name": "DAI_address",
      "outputs": [
        {
          "internalType": "address",
          "name": "",
          "type": "address"
        }
      ],
      "stateMutability": "view",
      "type": "function"
    },
    {
      "inputs": [],
      "name": "USDC_address",
      "outputs": [
        {
          "internalType": "address",
          "name": "",
          "type": "address"
        }
      ],
      "stateMutability": "view",
      "type": "function"
    },
    {
      "inputs": [],
      "name": "WETH9_address",
      "outputs": [
        {
          "internalType": "address",
          "name": "",
          "type": "address"
        }
      ],
      "stateMutability": "view",
      "type": "function"
    },
    {
      "inputs": [
        {
          "internalType": "uint256",
          "name": "amountIn",
          "type": "uint256"
        }
      ],
      "name": "swapExactInputSingle",
      "outputs": [
        {
          "internalType": "uint256",
          "name": "amountOut",
          "type": "uint256"
        }
      ],
      "stateMutability": "nonpayable",
      "type": "function"
    },
    {
      "inputs": [
        {
          "internalType": "uint256",
          "name": "amountOut",
          "type": "uint256"
        },
        {
          "internalType": "uint256",
          "name": "amountInMaximum",
          "type": "uint256"
        }
      ],
      "name": "swapExactOutputSingle",
      "outputs": [
        {
          "internalType": "uint256",
          "name": "amountIn",
          "type": "uint256"
        }
      ],
      "stateMutability": "nonpayable",
      "type": "function"
    },
    {
      "inputs": [],
      "name": "swapRouter",
      "outputs": [
        {
          "internalType": "contract ISwapRouter",
          "name": "",
          "type": "address"
        }
      ],
      "stateMutability": "view",
      "type": "function"
    }
  ],
  "bytecode": "0x608060405234801561001057600080fd5b50610e9c806100206000396000f3fe608060405234801561001057600080fd5b50600436106100625760003560e01c806340b095321461006757806373bd43ad14610085578063c31c9c07146100b5578063c4b69a18146100d3578063f9abd26c14610103578063fa4dfa3a14610121575b600080fd5b61006f61013f565b60405161007c919061085d565b60405180910390f35b61009f600480360381019061009a91906108b3565b610157565b6040516100ac91906108ef565b60405180910390f35b6100bd61030b565b6040516100ca9190610969565b60405180910390f35b6100ed60048036038101906100e89190610984565b610323565b6040516100fa91906108ef565b60405180910390f35b61010b61053f565b604051610118919061085d565b60405180910390f35b610129610557565b604051610136919061085d565b60405180910390f35b73c02aaa39b223fe8d0a0e5c4f27ead9083c756cc281565b600061017973c02aaa39b223fe8d0a0e5c4f27ead9083c756cc233308561056f565b6101ac73c02aaa39b223fe8d0a0e5c4f27ead9083c756cc273e592427a0aece92de3edee1f18e0157c05861564846106c7565b600060405180610100016040528073c02aaa39b223fe8d0a0e5c4f27ead9083c756cc273ffffffffffffffffffffffffffffffffffffffff168152602001736b175474e89094c44da98b954eedeac495271d0f73ffffffffffffffffffffffffffffffffffffffff168152602001610bb862ffffff1681526020013373ffffffffffffffffffffffffffffffffffffffff16815260200142815260200184815260200160008152602001600073ffffffffffffffffffffffffffffffffffffffff16815250905073e592427a0aece92de3edee1f18e0157c0586156473ffffffffffffffffffffffffffffffffffffffff1663414bf389826040518263ffffffff1660e01b81526004016102c09190610ab1565b6020604051808303816000875af11580156102df573d6000803e3d6000fd5b505050506040513d601f19601f820116820180604052508101906103039190610ae2565b915050919050565b73e592427a0aece92de3edee1f18e0157c0586156481565b600061034573c02aaa39b223fe8d0a0e5c4f27ead9083c756cc233308561056f565b61037873c02aaa39b223fe8d0a0e5c4f27ead9083c756cc273e592427a0aece92de3edee1f18e0157c05861564846106c7565b600060405180610100016040528073c02aaa39b223fe8d0a0e5c4f27ead9083c756cc273ffffffffffffffffffffffffffffffffffffffff168152602001736b175474e89094c44da98b954eedeac495271d0f73ffffffffffffffffffffffffffffffffffffffff168152602001610bb862ffffff1681526020013373ffffffffffffffffffffffffffffffffffffffff168152602001428152602001858152602001848152602001600073ffffffffffffffffffffffffffffffffffffffff16815250905073e592427a0aece92de3edee1f18e0157c0586156473ffffffffffffffffffffffffffffffffffffffff1663db3e2198826040518263ffffffff1660e01b815260040161048b9190610bb1565b6020604051808303816000875af11580156104aa573d6000803e3d6000fd5b505050506040513d601f19601f820116820180604052508101906104ce9190610ae2565b9150828210156105385761050c73c02aaa39b223fe8d0a0e5c4f27ead9083c756cc273e592427a0aece92de3edee1f18e0157c0586156460006106c7565b61053773c02aaa39b223fe8d0a0e5c4f27ead9083c756cc2303385876105329190610bfc565b61056f565b5b5092915050565b73a0b86991c6218b36c1d19d4a2e9eb0ce3606eb4881565b736b175474e89094c44da98b954eedeac495271d0f81565b6000808573ffffffffffffffffffffffffffffffffffffffff166323b872dd60e01b8686866040516024016105a693929190610c30565b604051602081830303815290604052907bffffffffffffffffffffffffffffffffffffffffffffffffffffffff19166020820180517bffffffffffffffffffffffffffffffffffffffffffffffffffffffff83818316178352505050506040516106109190610cd8565b6000604051808303816000865af19150503d806000811461064d576040519150601f19603f3d011682016040523d82523d6000602084013e610652565b606091505b5091509150818015610680575060008151148061067f57508080602001905181019061067e9190610d27565b5b5b6106bf576040517f08c379a00000000000000000000000000000000000000000000000000000000081526004016106b690610db1565b60405180910390fd5b505050505050565b6000808473ffffffffffffffffffffffffffffffffffffffff1663095ea7b360e01b85856040516024016106fc929190610dd1565b604051602081830303815290604052907bffffffffffffffffffffffffffffffffffffffffffffffffffffffff19166020820180517bffffffffffffffffffffffffffffffffffffffffffffffffffffffff83818316178352505050506040516107669190610cd8565b6000604051808303816000865af19150503d80600081146107a3576040519150601f19603f3d011682016040523d82523d6000602084013e6107a8565b606091505b50915091508180156107d657506000815114806107d55750808060200190518101906107d49190610d27565b5b5b610815576040517f08c379a000000000000000000000000000000000000000000000000000000000815260040161080c90610e46565b60405180910390fd5b5050505050565b600073ffffffffffffffffffffffffffffffffffffffff82169050919050565b60006108478261081c565b9050919050565b6108578161083c565b82525050565b6000602082019050610872600083018461084e565b92915050565b600080fd5b6000819050919050565b6108908161087d565b811461089b57600080fd5b50565b6000813590506108ad81610887565b92915050565b6000602082840312156108c9576108c8610878565b5b60006108d78482850161089e565b91505092915050565b6108e98161087d565b82525050565b600060208201905061090460008301846108e0565b92915050565b6000819050919050565b600061092f61092a6109258461081c565b61090a565b61081c565b9050919050565b600061094182610914565b9050919050565b600061095382610936565b9050919050565b61096381610948565b82525050565b600060208201905061097e600083018461095a565b92915050565b6000806040838503121561099b5761099a610878565b5b60006109a98582860161089e565b92505060206109ba8582860161089e565b9150509250929050565b6109cd8161083c565b82525050565b600062ffffff82169050919050565b6109eb816109d3565b82525050565b6109fa8161087d565b82525050565b610a098161081c565b82525050565b61010082016000820151610a2660008501826109c4565b506020820151610a3960208501826109c4565b506040820151610a4c60408501826109e2565b506060820151610a5f60608501826109c4565b506080820151610a7260808501826109f1565b5060a0820151610a8560a08501826109f1565b5060c0820151610a9860c08501826109f1565b5060e0820151610aab60e0850182610a00565b50505050565b600061010082019050610ac76000830184610a0f565b92915050565b600081519050610adc81610887565b92915050565b600060208284031215610af857610af7610878565b5b6000610b0684828501610acd565b91505092915050565b61010082016000820151610b2660008501826109c4565b506020820151610b3960208501826109c4565b506040820151610b4c60408501826109e2565b506060820151610b5f60608501826109c4565b506080820151610b7260808501826109f1565b5060a0820151610b8560a08501826109f1565b5060c0820151610b9860c08501826109f1565b5060e0820151610bab60e0850182610a00565b50505050565b600061010082019050610bc76000830184610b0f565b92915050565b7f4e487b7100000000000000000000000000000000000000000000000000000000600052601160045260246000fd5b6000610c078261087d565b9150610c128361087d565b9250828203905081811115610c2a57610c29610bcd565b5b92915050565b6000606082019050610c45600083018661084e565b610c52602083018561084e565b610c5f60408301846108e0565b949350505050565b600081519050919050565b600081905092915050565b60005b83811015610c9b578082015181840152602081019050610c80565b60008484015250505050565b6000610cb282610c67565b610cbc8185610c72565b9350610ccc818560208601610c7d565b80840191505092915050565b6000610ce48284610ca7565b915081905092915050565b60008115159050919050565b610d0481610cef565b8114610d0f57600080fd5b50565b600081519050610d2181610cfb565b92915050565b600060208284031215610d3d57610d3c610878565b5b6000610d4b84828501610d12565b91505092915050565b600082825260208201905092915050565b7f5354460000000000000000000000000000000000000000000000000000000000600082015250565b6000610d9b600383610d54565b9150610da682610d65565b602082019050919050565b60006020820190508181036000830152610dca81610d8e565b9050919050565b6000604082019050610de6600083018561084e565b610df360208301846108e0565b9392505050565b7f5341000000000000000000000000000000000000000000000000000000000000600082015250565b6000610e30600283610d54565b9150610e3b82610dfa565b602082019050919050565b60006020820190508181036000830152610e5f81610e23565b905091905056fea264697066735822122071641ce3e3e170f26c08d1943ba63c00eb4da8903fec68e01ba00ec281e7c7e964736f6c63430008180033",
  "linkReferences": {},
  "deployedLinkReferences": {}
}